{
  "_format": "hh-sol-artifact-1",
  "contractName": "Voting",
  "sourceName": "contracts/Voting.sol",
  "abi": [
    {
      "inputs": [
        {
          "internalType": "address",
          "name": "trustedForwarder",
          "type": "address"
        }
      ],
      "stateMutability": "nonpayable",
      "type": "constructor"
    },
    {
      "anonymous": false,
      "inputs": [
        {
          "components": [
            {
              "internalType": "uint256",
              "name": "projectId",
              "type": "uint256"
            },
            {
              "internalType": "address",
              "name": "creatorAddress",
              "type": "address"
            },
            {
              "internalType": "uint256",
              "name": "timestamp",
              "type": "uint256"
            },
            {
              "internalType": "string",
              "name": "description",
              "type": "string"
            },
            {
              "internalType": "string",
              "name": "website",
              "type": "string"
            },
            {
              "internalType": "uint256",
              "name": "upvotes",
              "type": "uint256"
            }
          ],
          "indexed": false,
          "internalType": "struct Voting.Project",
          "name": "project",
          "type": "tuple"
        }
      ],
      "name": "ProjectUpvoted",
      "type": "event"
    },
    {
      "inputs": [],
      "name": "getProjects",
      "outputs": [
        {
          "components": [
            {
              "internalType": "uint256",
              "name": "projectId",
              "type": "uint256"
            },
            {
              "internalType": "address",
              "name": "creatorAddress",
              "type": "address"
            },
            {
              "internalType": "uint256",
              "name": "timestamp",
              "type": "uint256"
            },
            {
              "internalType": "string",
              "name": "description",
              "type": "string"
            },
            {
              "internalType": "string",
              "name": "website",
              "type": "string"
            },
            {
              "internalType": "uint256",
              "name": "upvotes",
              "type": "uint256"
            }
          ],
          "internalType": "struct Voting.Project[]",
          "name": "",
          "type": "tuple[]"
        }
      ],
      "stateMutability": "view",
      "type": "function"
    },
    {
      "inputs": [
        {
          "internalType": "uint256",
          "name": "_projectId",
          "type": "uint256"
        }
      ],
      "name": "getUpvotes",
      "outputs": [
        {
          "internalType": "uint256",
          "name": "",
          "type": "uint256"
        }
      ],
      "stateMutability": "view",
      "type": "function"
    },
    {
      "inputs": [
        {
          "internalType": "uint256",
          "name": "_projectId",
          "type": "uint256"
        }
      ],
      "name": "hasUpvoted",
      "outputs": [
        {
          "internalType": "bool",
          "name": "",
          "type": "bool"
        }
      ],
      "stateMutability": "view",
      "type": "function"
    },
    {
      "inputs": [
        {
          "internalType": "address",
          "name": "forwarder",
          "type": "address"
        }
      ],
      "name": "isTrustedForwarder",
      "outputs": [
        {
          "internalType": "bool",
          "name": "",
          "type": "bool"
        }
      ],
      "stateMutability": "view",
      "type": "function"
    },
    {
      "inputs": [
        {
          "internalType": "string",
          "name": "_website",
          "type": "string"
        },
        {
          "internalType": "string",
          "name": "_description",
          "type": "string"
        }
      ],
      "name": "postProject",
      "outputs": [],
      "stateMutability": "nonpayable",
      "type": "function"
    },
    {
      "inputs": [
        {
          "internalType": "uint256",
          "name": "",
          "type": "uint256"
        }
      ],
      "name": "projects",
      "outputs": [
        {
          "internalType": "uint256",
          "name": "projectId",
          "type": "uint256"
        },
        {
          "internalType": "address",
          "name": "creatorAddress",
          "type": "address"
        },
        {
          "internalType": "uint256",
          "name": "timestamp",
          "type": "uint256"
        },
        {
          "internalType": "string",
          "name": "description",
          "type": "string"
        },
        {
          "internalType": "string",
          "name": "website",
          "type": "string"
        },
        {
          "internalType": "uint256",
          "name": "upvotes",
          "type": "uint256"
        }
      ],
      "stateMutability": "view",
      "type": "function"
    },
    {
      "inputs": [
        {
          "internalType": "uint256",
          "name": "_projectId",
          "type": "uint256"
        }
      ],
      "name": "upvoteProject",
      "outputs": [],
      "stateMutability": "nonpayable",
      "type": "function"
    },
    {
      "inputs": [
        {
          "internalType": "uint256",
          "name": "",
          "type": "uint256"
        },
        {
          "internalType": "address",
          "name": "",
          "type": "address"
        }
      ],
      "name": "upvoters",
      "outputs": [
        {
          "internalType": "bool",
          "name": "",
          "type": "bool"
        }
      ],
      "stateMutability": "view",
      "type": "function"
    },
    {
      "inputs": [
        {
          "internalType": "address",
          "name": "",
          "type": "address"
        },
        {
          "internalType": "uint256",
          "name": "",
          "type": "uint256"
        }
      ],
      "name": "usersProjects",
      "outputs": [
        {
          "internalType": "uint256",
          "name": "",
          "type": "uint256"
        }
      ],
      "stateMutability": "view",
      "type": "function"
    },
    {
      "inputs": [
        {
          "internalType": "address",
          "name": "",
          "type": "address"
        }
      ],
      "name": "usersUpvoteCount",
      "outputs": [
        {
          "internalType": "uint256",
          "name": "",
          "type": "uint256"
        }
      ],
      "stateMutability": "view",
      "type": "function"
    }
  ],
  "bytecode": "0x60a06040526012600a62000014919062000243565b600162000022919062000294565b6005556012600a62000035919062000243565b600362000043919062000294565b6006553480156200005357600080fd5b506040516200232538038062002325833981810160405281019062000079919062000349565b808073ffffffffffffffffffffffffffffffffffffffff1660808173ffffffffffffffffffffffffffffffffffffffff168152505050506200037b565b7f4e487b7100000000000000000000000000000000000000000000000000000000600052601160045260246000fd5b60008160011c9050919050565b6000808291508390505b600185111562000144578086048111156200011c576200011b620000b6565b5b60018516156200012c5780820291505b80810290506200013c85620000e5565b9450620000fc565b94509492505050565b6000826200015f576001905062000232565b816200016f576000905062000232565b81600181146200018857600281146200019357620001c9565b600191505062000232565b60ff841115620001a857620001a7620000b6565b5b8360020a915084821115620001c257620001c1620000b6565b5b5062000232565b5060208310610133831016604e8410600b8410161715620002035782820a905083811115620001fd57620001fc620000b6565b5b62000232565b620002128484846001620000f2565b925090508184048111156200022c576200022b620000b6565b5b81810290505b9392505050565b6000819050919050565b6000620002508262000239565b91506200025d8362000239565b92506200028c7fffffffffffffffffffffffffffffffffffffffffffffffffffffffffffffffff84846200014d565b905092915050565b6000620002a18262000239565b9150620002ae8362000239565b9250828202620002be8162000239565b91508282048414831517620002d857620002d7620000b6565b5b5092915050565b600080fd5b600073ffffffffffffffffffffffffffffffffffffffff82169050919050565b60006200031182620002e4565b9050919050565b620003238162000304565b81146200032f57600080fd5b50565b600081519050620003438162000318565b92915050565b600060208284031215620003625762000361620002df565b5b6000620003728482850162000332565b91505092915050565b608051611f8e6200039760003960006109ff0152611f8e6000f3fe608060405234801561001057600080fd5b506004361061009e5760003560e01c80637f56330f116100665780637f56330f1461018457806398f42702146101a0578063c723bf86146101d0578063cb24b51e14610200578063dcc60128146102305761009e565b8063107046bd146100a357806335677ad9146100d85780634c035d8214610108578063572b6c051461012457806362bf6ffe14610154575b600080fd5b6100bd60048036038101906100b8919061100e565b61024e565b6040516100cf9695949392919061111b565b60405180910390f35b6100f260048036038101906100ed91906111b6565b6103ca565b6040516100ff91906111e3565b60405180910390f35b610122600480360381019061011d919061100e565b6103e2565b005b61013e600480360381019061013991906111b6565b6109fb565b60405161014b9190611219565b60405180910390f35b61016e60048036038101906101699190611234565b610a53565b60405161017b9190611219565b60405180910390f35b61019e600480360381019061019991906112d9565b610a82565b005b6101ba60048036038101906101b5919061100e565b610cd0565b6040516101c791906111e3565b60405180910390f35b6101ea60048036038101906101e5919061135a565b610cfe565b6040516101f791906111e3565b60405180910390f35b61021a6004803603810190610215919061100e565b610d2f565b6040516102279190611219565b60405180910390f35b610238610d9d565b6040516102459190611554565b60405180910390f35b6000818154811061025e57600080fd5b90600052602060002090600602016000915090508060000154908060010160009054906101000a900473ffffffffffffffffffffffffffffffffffffffff16908060020154908060030180546102b3906115a5565b80601f01602080910402602001604051908101604052809291908181526020018280546102df906115a5565b801561032c5780601f106103015761010080835404028352916020019161032c565b820191906000526020600020905b81548152906001019060200180831161030f57829003601f168201915b505050505090806004018054610341906115a5565b80601f016020809104026020016040519081016040528092919081815260200182805461036d906115a5565b80156103ba5780601f1061038f576101008083540402835291602001916103ba565b820191906000526020600020905b81548152906001019060200180831161039d57829003601f168201915b5050505050908060050154905086565b60026020528060005260406000206000915090505481565b80600080549050101561042a576040517f08c379a000000000000000000000000000000000000000000000000000000000815260040161042190611622565b60405180910390fd5b6001151560016000838152602001908152602001600020600061044b610f94565b73ffffffffffffffffffffffffffffffffffffffff1673ffffffffffffffffffffffffffffffffffffffff16815260200190815260200160002060009054906101000a900460ff161515036104d5576040517f08c379a00000000000000000000000000000000000000000000000000000000081526004016104cc9061168e565b60405180910390fd5b6104dd610f94565b73ffffffffffffffffffffffffffffffffffffffff1660008281548110610507576105066116ae565b5b906000526020600020906006020160010160009054906101000a900473ffffffffffffffffffffffffffffffffffffffff1673ffffffffffffffffffffffffffffffffffffffff160361058f576040517f08c379a000000000000000000000000000000000000000000000000000000000815260040161058690611729565b60405180910390fd5b60055473a5909b30b1267b36a93d2d3f6eb1809db36e9a7e73ffffffffffffffffffffffffffffffffffffffff166370a082316105ca610f94565b6040518263ffffffff1660e01b81526004016105e69190611749565b602060405180830381865afa158015610603573d6000803e3d6000fd5b505050506040513d601f19601f820116820180604052508101906106279190611779565b1015610668576040517f08c379a000000000000000000000000000000000000000000000000000000000815260040161065f906117f2565b60405180910390fd5b60055473a5909b30b1267b36a93d2d3f6eb1809db36e9a7e73ffffffffffffffffffffffffffffffffffffffff1663dd62ed3e6106a3610f94565b306040518363ffffffff1660e01b81526004016106c1929190611812565b602060405180830381865afa1580156106de573d6000803e3d6000fd5b505050506040513d601f19601f820116820180604052508101906107029190611779565b1015610743576040517f08c379a000000000000000000000000000000000000000000000000000000000815260040161073a90611887565b60405180910390fd5b6000808281548110610758576107576116ae565b5b90600052602060002090600602019050600073a5909b30b1267b36a93d2d3f6eb1809db36e9a7e73ffffffffffffffffffffffffffffffffffffffff166323b872dd6107a2610f94565b8460010160009054906101000a900473ffffffffffffffffffffffffffffffffffffffff166005546040518463ffffffff1660e01b81526004016107e8939291906118a7565b6020604051808303816000875af1158015610807573d6000803e3d6000fd5b505050506040513d601f19601f8201168201806040525081019061082b919061190a565b90508061086d576040517f08c379a000000000000000000000000000000000000000000000000000000000815260040161086490611983565b60405180910390fd5b816005016000815480929190610882906119d2565b919050555060026000610893610f94565b73ffffffffffffffffffffffffffffffffffffffff1673ffffffffffffffffffffffffffffffffffffffff16815260200190815260200160002060008154809291906108de906119d2565b9190505550600360006108ef610f94565b73ffffffffffffffffffffffffffffffffffffffff1673ffffffffffffffffffffffffffffffffffffffff1681526020019081526020016000208390806001815401808255809150506001900390600052602060002001600090919091909150556001806000858152602001908152602001600020600061096e610f94565b73ffffffffffffffffffffffffffffffffffffffff1673ffffffffffffffffffffffffffffffffffffffff16815260200190815260200160002060006101000a81548160ff0219169083151502179055507f02540fb9f38379dbab7a7053385f2837744ea3870271c786b60d900aeaa82453826040516109ee9190611bda565b60405180910390a1505050565b60007f000000000000000000000000000000000000000000000000000000000000000073ffffffffffffffffffffffffffffffffffffffff168273ffffffffffffffffffffffffffffffffffffffff16149050919050565b60016020528160005260406000206020528060005260406000206000915091509054906101000a900460ff1681565b60008080549050905060048585604051610a9d929190611c3b565b908152602001604051809103902060009054906101000a900460ff1615610af9576040517f08c379a0000000000000000000000000000000000000000000000000000000008152600401610af090611ca0565b60405180910390fd5b60006040518060c00160405280838152602001610b14610f94565b73ffffffffffffffffffffffffffffffffffffffff16815260200142815260200185858080601f016020809104026020016040519081016040528093929190818152602001838380828437600081840152601f19601f82011690508083019250505050505050815260200187878080601f016020809104026020016040519081016040528093929190818152602001838380828437600081840152601f19601f8201169050808301925050505050505081526020016000815250905060008190806001815401808255809150506001900390600052602060002090600602016000909190919091506000820151816000015560208201518160010160006101000a81548173ffffffffffffffffffffffffffffffffffffffff021916908373ffffffffffffffffffffffffffffffffffffffff160217905550604082015181600201556060820151816003019081610c6c9190611e86565b506080820151816004019081610c829190611e86565b5060a082015181600501555050600160048787604051610ca3929190611c3b565b908152602001604051809103902060006101000a81548160ff021916908315150217905550505050505050565b6000808281548110610ce557610ce46116ae565b5b9060005260206000209060060201600501549050919050565b60036020528160005260406000208181548110610d1a57600080fd5b90600052602060002001600091509150505481565b6000600160008381526020019081526020016000206000610d4e610f94565b73ffffffffffffffffffffffffffffffffffffffff1673ffffffffffffffffffffffffffffffffffffffff16815260200190815260200160002060009054906101000a900460ff169050919050565b60606000805480602002602001604051908101604052809291908181526020016000905b82821015610f8b57838290600052602060002090600602016040518060c0016040529081600082015481526020016001820160009054906101000a900473ffffffffffffffffffffffffffffffffffffffff1673ffffffffffffffffffffffffffffffffffffffff1673ffffffffffffffffffffffffffffffffffffffff16815260200160028201548152602001600382018054610e5e906115a5565b80601f0160208091040260200160405190810160405280929190818152602001828054610e8a906115a5565b8015610ed75780601f10610eac57610100808354040283529160200191610ed7565b820191906000526020600020905b815481529060010190602001808311610eba57829003601f168201915b50505050508152602001600482018054610ef0906115a5565b80601f0160208091040260200160405190810160405280929190818152602001828054610f1c906115a5565b8015610f695780601f10610f3e57610100808354040283529160200191610f69565b820191906000526020600020905b815481529060010190602001808311610f4c57829003601f168201915b5050505050815260200160058201548152505081526020019060010190610dc1565b50505050905090565b6000610f9f336109fb565b15610fb357601436033560601c9050610fc2565b610fbb610fc6565b9050610fc3565b5b90565b600033905090565b600080fd5b600080fd5b6000819050919050565b610feb81610fd8565b8114610ff657600080fd5b50565b60008135905061100881610fe2565b92915050565b60006020828403121561102457611023610fce565b5b600061103284828501610ff9565b91505092915050565b61104481610fd8565b82525050565b600073ffffffffffffffffffffffffffffffffffffffff82169050919050565b60006110758261104a565b9050919050565b6110858161106a565b82525050565b600081519050919050565b600082825260208201905092915050565b60005b838110156110c55780820151818401526020810190506110aa565b60008484015250505050565b6000601f19601f8301169050919050565b60006110ed8261108b565b6110f78185611096565b93506111078185602086016110a7565b611110816110d1565b840191505092915050565b600060c082019050611130600083018961103b565b61113d602083018861107c565b61114a604083018761103b565b818103606083015261115c81866110e2565b9050818103608083015261117081856110e2565b905061117f60a083018461103b565b979650505050505050565b6111938161106a565b811461119e57600080fd5b50565b6000813590506111b08161118a565b92915050565b6000602082840312156111cc576111cb610fce565b5b60006111da848285016111a1565b91505092915050565b60006020820190506111f8600083018461103b565b92915050565b60008115159050919050565b611213816111fe565b82525050565b600060208201905061122e600083018461120a565b92915050565b6000806040838503121561124b5761124a610fce565b5b600061125985828601610ff9565b925050602061126a858286016111a1565b9150509250929050565b600080fd5b600080fd5b600080fd5b60008083601f84011261129957611298611274565b5b8235905067ffffffffffffffff8111156112b6576112b5611279565b5b6020830191508360018202830111156112d2576112d161127e565b5b9250929050565b600080600080604085870312156112f3576112f2610fce565b5b600085013567ffffffffffffffff81111561131157611310610fd3565b5b61131d87828801611283565b9450945050602085013567ffffffffffffffff8111156113405761133f610fd3565b5b61134c87828801611283565b925092505092959194509250565b6000806040838503121561137157611370610fce565b5b600061137f858286016111a1565b925050602061139085828601610ff9565b9150509250929050565b600081519050919050565b600082825260208201905092915050565b6000819050602082019050919050565b6113cf81610fd8565b82525050565b6113de8161106a565b82525050565b600082825260208201905092915050565b60006114008261108b565b61140a81856113e4565b935061141a8185602086016110a7565b611423816110d1565b840191505092915050565b600060c08301600083015161144660008601826113c6565b50602083015161145960208601826113d5565b50604083015161146c60408601826113c6565b506060830151848203606086015261148482826113f5565b9150506080830151848203608086015261149e82826113f5565b91505060a08301516114b360a08601826113c6565b508091505092915050565b60006114ca838361142e565b905092915050565b6000602082019050919050565b60006114ea8261139a565b6114f481856113a5565b935083602082028501611506856113b6565b8060005b85811015611542578484038952815161152385826114be565b945061152e836114d2565b925060208a0199505060018101905061150a565b50829750879550505050505092915050565b6000602082019050818103600083015261156e81846114df565b905092915050565b7f4e487b7100000000000000000000000000000000000000000000000000000000600052602260045260246000fd5b600060028204905060018216806115bd57607f821691505b6020821081036115d0576115cf611576565b5b50919050565b7f4c696e6b20646f6573206e6f7420657869737400000000000000000000000000600082015250565b600061160c601383611096565b9150611617826115d6565b602082019050919050565b6000602082019050818103600083015261163b816115ff565b9050919050565b7f596f752063616e206f6e6c79207570766f74652061206c696e6b206f6e636500600082015250565b6000611678601f83611096565b915061168382611642565b602082019050919050565b600060208201905081810360008301526116a78161166b565b9050919050565b7f4e487b7100000000000000000000000000000000000000000000000000000000600052603260045260246000fd5b7f43616e6e6f74207570766f746520796f7572206f776e206c696e6b0000000000600082015250565b6000611713601b83611096565b915061171e826116dd565b602082019050919050565b6000602082019050818103600083015261174281611706565b9050919050565b600060208201905061175e600083018461107c565b92915050565b60008151905061177381610fe2565b92915050565b60006020828403121561178f5761178e610fce565b5b600061179d84828501611764565b91505092915050565b7f596f752068617665206e6f20436c756220746f6b656e7320746f2073656e6400600082015250565b60006117dc601f83611096565b91506117e7826117a6565b602082019050919050565b6000602082019050818103600083015261180b816117cf565b9050919050565b6000604082019050611827600083018561107c565b611834602083018461107c565b9392505050565b7f446964206e6f7420617070726f766520746f6b656e207472616e736665720000600082015250565b6000611871601e83611096565b915061187c8261183b565b602082019050919050565b600060208201905081810360008301526118a081611864565b9050919050565b60006060820190506118bc600083018661107c565b6118c9602083018561107c565b6118d6604083018461103b565b949350505050565b6118e7816111fe565b81146118f257600080fd5b50565b600081519050611904816118de565b92915050565b6000602082840312156119205761191f610fce565b5b600061192e848285016118f5565b91505092915050565b7f546f6b656e207472616e73666572206661696c65642100000000000000000000600082015250565b600061196d601683611096565b915061197882611937565b602082019050919050565b6000602082019050818103600083015261199c81611960565b9050919050565b7f4e487b7100000000000000000000000000000000000000000000000000000000600052601160045260246000fd5b60006119dd82610fd8565b91507fffffffffffffffffffffffffffffffffffffffffffffffffffffffffffffffff8203611a0f57611a0e6119a3565b5b600182019050919050565b60008160001c9050919050565b6000819050919050565b6000611a44611a3f83611a1a565b611a27565b9050919050565b600073ffffffffffffffffffffffffffffffffffffffff82169050919050565b6000611a7e611a7983611a1a565b611a4b565b9050919050565b60008190508160005260206000209050919050565b60008154611aa7816115a5565b611ab181866113e4565b94506001821660008114611acc5760018114611ae257611b15565b60ff198316865281151560200286019350611b15565b611aeb85611a85565b60005b83811015611b0d57815481890152600182019150602081019050611aee565b808801955050505b50505092915050565b600060c083016000808401549050611b3581611a31565b611b4260008701826113c6565b5060018401549050611b5381611a6b565b611b6060208701826113d5565b5060028401549050611b7181611a31565b611b7e60408701826113c6565b50600384018583036060870152611b958382611a9a565b925050600484018583036080870152611bae8382611a9a565b92505060058401549050611bc181611a31565b611bce60a08701826113c6565b50819250505092915050565b60006020820190508181036000830152611bf48184611b1e565b905092915050565b600081905092915050565b82818337600083830152505050565b6000611c228385611bfc565b9350611c2f838584611c07565b82840190509392505050565b6000611c48828486611c16565b91508190509392505050565b7f4c696e6b20616c7265616479207375626d697474656400000000000000000000600082015250565b6000611c8a601683611096565b9150611c9582611c54565b602082019050919050565b60006020820190508181036000830152611cb981611c7d565b9050919050565b7f4e487b7100000000000000000000000000000000000000000000000000000000600052604160045260246000fd5b60006020601f8301049050919050565b600082821b905092915050565b600060088302611d3c7fffffffffffffffffffffffffffffffffffffffffffffffffffffffffffffffff82611cff565b611d468683611cff565b95508019841693508086168417925050509392505050565b6000819050919050565b6000611d83611d7e611d7984610fd8565b611d5e565b610fd8565b9050919050565b6000819050919050565b611d9d83611d68565b611db1611da982611d8a565b848454611d0c565b825550505050565b600090565b611dc6611db9565b611dd1818484611d94565b505050565b5b81811015611df557611dea600082611dbe565b600181019050611dd7565b5050565b601f821115611e3a57611e0b81611a85565b611e1484611cef565b81016020851015611e23578190505b611e37611e2f85611cef565b830182611dd6565b50505b505050565b600082821c905092915050565b6000611e5d60001984600802611e3f565b1980831691505092915050565b6000611e768383611e4c565b9150826002028217905092915050565b611e8f8261108b565b67ffffffffffffffff811115611ea857611ea7611cc0565b5b611eb282546115a5565b611ebd828285611df9565b600060209050601f831160018114611ef05760008415611ede578287015190505b611ee88582611e6a565b865550611f50565b601f198416611efe86611a85565b60005b82811015611f2657848901518255600182019150602085019450602081019050611f01565b86831015611f435784890151611f3f601f891682611e4c565b8355505b6001600288020188555050505b50505050505056fea2646970667358221220e32e9d4c218c31586f43bb51fd5b8dac1f48263470bb996aa7cfb3d855f59fa864736f6c63430008110033",
  "linkReferences": {},
  "deployedLinkReferences": {}
}