{
  "_format": "hh-sol-artifact-1",
  "contractName": "Voting",
  "sourceName": "contracts/Voting.sol",
  "abi": [
    {
      "inputs": [
        {
          "internalType": "address",
          "name": "trustedForwarder",
          "type": "address"
        }
      ],
      "stateMutability": "nonpayable",
      "type": "constructor"
    },
    {
      "anonymous": false,
      "inputs": [
        {
          "components": [
            {
              "internalType": "uint256",
              "name": "projectId",
              "type": "uint256"
            },
            {
              "internalType": "address",
              "name": "creatorAddress",
              "type": "address"
            },
            {
              "internalType": "uint256",
              "name": "timestamp",
              "type": "uint256"
            },
            {
              "internalType": "string",
              "name": "description",
              "type": "string"
            },
            {
              "internalType": "string",
              "name": "website",
              "type": "string"
            },
            {
              "internalType": "uint256",
              "name": "upvotes",
              "type": "uint256"
            }
          ],
          "indexed": false,
          "internalType": "struct Voting.Project",
          "name": "project",
          "type": "tuple"
        }
      ],
      "name": "ProjectUpvoted",
      "type": "event"
    },
    {
      "inputs": [],
      "name": "getProjects",
      "outputs": [
        {
          "components": [
            {
              "internalType": "uint256",
              "name": "projectId",
              "type": "uint256"
            },
            {
              "internalType": "address",
              "name": "creatorAddress",
              "type": "address"
            },
            {
              "internalType": "uint256",
              "name": "timestamp",
              "type": "uint256"
            },
            {
              "internalType": "string",
              "name": "description",
              "type": "string"
            },
            {
              "internalType": "string",
              "name": "website",
              "type": "string"
            },
            {
              "internalType": "uint256",
              "name": "upvotes",
              "type": "uint256"
            }
          ],
          "internalType": "struct Voting.Project[]",
          "name": "",
          "type": "tuple[]"
        }
      ],
      "stateMutability": "view",
      "type": "function"
    },
    {
      "inputs": [
        {
          "internalType": "uint256",
          "name": "_projectId",
          "type": "uint256"
        }
      ],
      "name": "getUpvotes",
      "outputs": [
        {
          "internalType": "uint256",
          "name": "",
          "type": "uint256"
        }
      ],
      "stateMutability": "view",
      "type": "function"
    },
    {
      "inputs": [
        {
          "internalType": "address",
          "name": "forwarder",
          "type": "address"
        }
      ],
      "name": "isTrustedForwarder",
      "outputs": [
        {
          "internalType": "bool",
          "name": "",
          "type": "bool"
        }
      ],
      "stateMutability": "view",
      "type": "function"
    },
    {
      "inputs": [
        {
          "internalType": "string",
          "name": "_website",
          "type": "string"
        },
        {
          "internalType": "string",
          "name": "_description",
          "type": "string"
        }
      ],
      "name": "postProject",
      "outputs": [],
      "stateMutability": "nonpayable",
      "type": "function"
    },
    {
      "inputs": [
        {
          "internalType": "uint256",
          "name": "",
          "type": "uint256"
        }
      ],
      "name": "projects",
      "outputs": [
        {
          "internalType": "uint256",
          "name": "projectId",
          "type": "uint256"
        },
        {
          "internalType": "address",
          "name": "creatorAddress",
          "type": "address"
        },
        {
          "internalType": "uint256",
          "name": "timestamp",
          "type": "uint256"
        },
        {
          "internalType": "string",
          "name": "description",
          "type": "string"
        },
        {
          "internalType": "string",
          "name": "website",
          "type": "string"
        },
        {
          "internalType": "uint256",
          "name": "upvotes",
          "type": "uint256"
        }
      ],
      "stateMutability": "view",
      "type": "function"
    },
    {
      "inputs": [
        {
          "internalType": "uint256",
          "name": "_projectId",
          "type": "uint256"
        }
      ],
      "name": "upvoteProject",
      "outputs": [],
      "stateMutability": "nonpayable",
      "type": "function"
    },
    {
      "inputs": [
        {
          "internalType": "uint256",
          "name": "",
          "type": "uint256"
        },
        {
          "internalType": "address",
          "name": "",
          "type": "address"
        }
      ],
      "name": "upvoters",
      "outputs": [
        {
          "internalType": "bool",
          "name": "",
          "type": "bool"
        }
      ],
      "stateMutability": "view",
      "type": "function"
    },
    {
      "inputs": [
        {
          "internalType": "address",
          "name": "",
          "type": "address"
        },
        {
          "internalType": "uint256",
          "name": "",
          "type": "uint256"
        }
      ],
      "name": "usersProjects",
      "outputs": [
        {
          "internalType": "uint256",
          "name": "",
          "type": "uint256"
        }
      ],
      "stateMutability": "view",
      "type": "function"
    },
    {
      "inputs": [
        {
          "internalType": "address",
          "name": "",
          "type": "address"
        }
      ],
      "name": "usersUpvoteCount",
      "outputs": [
        {
          "internalType": "uint256",
          "name": "",
          "type": "uint256"
        }
      ],
      "stateMutability": "view",
      "type": "function"
    }
  ],
  "bytecode": "0x60a06040526012600a62000014919062000243565b600162000022919062000294565b6005556012600a62000035919062000243565b600362000043919062000294565b6006553480156200005357600080fd5b506040516200227c3803806200227c833981810160405281019062000079919062000349565b808073ffffffffffffffffffffffffffffffffffffffff1660808173ffffffffffffffffffffffffffffffffffffffff168152505050506200037b565b7f4e487b7100000000000000000000000000000000000000000000000000000000600052601160045260246000fd5b60008160011c9050919050565b6000808291508390505b600185111562000144578086048111156200011c576200011b620000b6565b5b60018516156200012c5780820291505b80810290506200013c85620000e5565b9450620000fc565b94509492505050565b6000826200015f576001905062000232565b816200016f576000905062000232565b81600181146200018857600281146200019357620001c9565b600191505062000232565b60ff841115620001a857620001a7620000b6565b5b8360020a915084821115620001c257620001c1620000b6565b5b5062000232565b5060208310610133831016604e8410600b8410161715620002035782820a905083811115620001fd57620001fc620000b6565b5b62000232565b620002128484846001620000f2565b925090508184048111156200022c576200022b620000b6565b5b81810290505b9392505050565b6000819050919050565b6000620002508262000239565b91506200025d8362000239565b92506200028c7fffffffffffffffffffffffffffffffffffffffffffffffffffffffffffffffff84846200014d565b905092915050565b6000620002a18262000239565b9150620002ae8362000239565b9250828202620002be8162000239565b91508282048414831517620002d857620002d7620000b6565b5b5092915050565b600080fd5b600073ffffffffffffffffffffffffffffffffffffffff82169050919050565b60006200031182620002e4565b9050919050565b620003238162000304565b81146200032f57600080fd5b50565b600081519050620003438162000318565b92915050565b600060208284031215620003625762000361620002df565b5b6000620003728482850162000332565b91505092915050565b608051611ee56200039760003960006109c40152611ee56000f3fe608060405234801561001057600080fd5b50600436106100935760003560e01c806362bf6ffe1161006657806362bf6ffe146101495780637f56330f1461017957806398f4270214610195578063c723bf86146101c5578063dcc60128146101f557610093565b8063107046bd1461009857806335677ad9146100cd5780634c035d82146100fd578063572b6c0514610119575b600080fd5b6100b260048036038101906100ad9190610f65565b610213565b6040516100c496959493929190611072565b60405180910390f35b6100e760048036038101906100e2919061110d565b61038f565b6040516100f4919061113a565b60405180910390f35b61011760048036038101906101129190610f65565b6103a7565b005b610133600480360381019061012e919061110d565b6109c0565b6040516101409190611170565b60405180910390f35b610163600480360381019061015e919061118b565b610a18565b6040516101709190611170565b60405180910390f35b610193600480360381019061018e9190611230565b610a47565b005b6101af60048036038101906101aa9190610f65565b610c95565b6040516101bc919061113a565b60405180910390f35b6101df60048036038101906101da91906112b1565b610cc3565b6040516101ec919061113a565b60405180910390f35b6101fd610cf4565b60405161020a91906114ab565b60405180910390f35b6000818154811061022357600080fd5b90600052602060002090600602016000915090508060000154908060010160009054906101000a900473ffffffffffffffffffffffffffffffffffffffff1690806002015490806003018054610278906114fc565b80601f01602080910402602001604051908101604052809291908181526020018280546102a4906114fc565b80156102f15780601f106102c6576101008083540402835291602001916102f1565b820191906000526020600020905b8154815290600101906020018083116102d457829003601f168201915b505050505090806004018054610306906114fc565b80601f0160208091040260200160405190810160405280929190818152602001828054610332906114fc565b801561037f5780601f106103545761010080835404028352916020019161037f565b820191906000526020600020905b81548152906001019060200180831161036257829003601f168201915b5050505050908060050154905086565b60026020528060005260406000206000915090505481565b8060008054905010156103ef576040517f08c379a00000000000000000000000000000000000000000000000000000000081526004016103e690611579565b60405180910390fd5b60011515600160008381526020019081526020016000206000610410610eeb565b73ffffffffffffffffffffffffffffffffffffffff1673ffffffffffffffffffffffffffffffffffffffff16815260200190815260200160002060009054906101000a900460ff1615150361049a576040517f08c379a0000000000000000000000000000000000000000000000000000000008152600401610491906115e5565b60405180910390fd5b6104a2610eeb565b73ffffffffffffffffffffffffffffffffffffffff16600082815481106104cc576104cb611605565b5b906000526020600020906006020160010160009054906101000a900473ffffffffffffffffffffffffffffffffffffffff1673ffffffffffffffffffffffffffffffffffffffff1603610554576040517f08c379a000000000000000000000000000000000000000000000000000000000815260040161054b90611680565b60405180910390fd5b60055473e9a46d9865c4ddd8b15be9d6b4ee7732e27a187873ffffffffffffffffffffffffffffffffffffffff166370a0823161058f610eeb565b6040518263ffffffff1660e01b81526004016105ab91906116a0565b602060405180830381865afa1580156105c8573d6000803e3d6000fd5b505050506040513d601f19601f820116820180604052508101906105ec91906116d0565b101561062d576040517f08c379a000000000000000000000000000000000000000000000000000000000815260040161062490611749565b60405180910390fd5b60055473e9a46d9865c4ddd8b15be9d6b4ee7732e27a187873ffffffffffffffffffffffffffffffffffffffff1663dd62ed3e610668610eeb565b306040518363ffffffff1660e01b8152600401610686929190611769565b602060405180830381865afa1580156106a3573d6000803e3d6000fd5b505050506040513d601f19601f820116820180604052508101906106c791906116d0565b1015610708576040517f08c379a00000000000000000000000000000000000000000000000000000000081526004016106ff906117de565b60405180910390fd5b600080828154811061071d5761071c611605565b5b90600052602060002090600602019050600073e9a46d9865c4ddd8b15be9d6b4ee7732e27a187873ffffffffffffffffffffffffffffffffffffffff166323b872dd610767610eeb565b8460010160009054906101000a900473ffffffffffffffffffffffffffffffffffffffff166005546040518463ffffffff1660e01b81526004016107ad939291906117fe565b6020604051808303816000875af11580156107cc573d6000803e3d6000fd5b505050506040513d601f19601f820116820180604052508101906107f09190611861565b905080610832576040517f08c379a0000000000000000000000000000000000000000000000000000000008152600401610829906118da565b60405180910390fd5b81600501600081548092919061084790611929565b919050555060026000610858610eeb565b73ffffffffffffffffffffffffffffffffffffffff1673ffffffffffffffffffffffffffffffffffffffff16815260200190815260200160002060008154809291906108a390611929565b9190505550600360006108b4610eeb565b73ffffffffffffffffffffffffffffffffffffffff1673ffffffffffffffffffffffffffffffffffffffff16815260200190815260200160002083908060018154018082558091505060019003906000526020600020016000909190919091505560018060008581526020019081526020016000206000610933610eeb565b73ffffffffffffffffffffffffffffffffffffffff1673ffffffffffffffffffffffffffffffffffffffff16815260200190815260200160002060006101000a81548160ff0219169083151502179055507f02540fb9f38379dbab7a7053385f2837744ea3870271c786b60d900aeaa82453826040516109b39190611b31565b60405180910390a1505050565b60007f000000000000000000000000000000000000000000000000000000000000000073ffffffffffffffffffffffffffffffffffffffff168273ffffffffffffffffffffffffffffffffffffffff16149050919050565b60016020528160005260406000206020528060005260406000206000915091509054906101000a900460ff1681565b60008080549050905060048585604051610a62929190611b92565b908152602001604051809103902060009054906101000a900460ff1615610abe576040517f08c379a0000000000000000000000000000000000000000000000000000000008152600401610ab590611bf7565b60405180910390fd5b60006040518060c00160405280838152602001610ad9610eeb565b73ffffffffffffffffffffffffffffffffffffffff16815260200142815260200185858080601f016020809104026020016040519081016040528093929190818152602001838380828437600081840152601f19601f82011690508083019250505050505050815260200187878080601f016020809104026020016040519081016040528093929190818152602001838380828437600081840152601f19601f8201169050808301925050505050505081526020016000815250905060008190806001815401808255809150506001900390600052602060002090600602016000909190919091506000820151816000015560208201518160010160006101000a81548173ffffffffffffffffffffffffffffffffffffffff021916908373ffffffffffffffffffffffffffffffffffffffff160217905550604082015181600201556060820151816003019081610c319190611ddd565b506080820151816004019081610c479190611ddd565b5060a082015181600501555050600160048787604051610c68929190611b92565b908152602001604051809103902060006101000a81548160ff021916908315150217905550505050505050565b6000808281548110610caa57610ca9611605565b5b9060005260206000209060060201600501549050919050565b60036020528160005260406000208181548110610cdf57600080fd5b90600052602060002001600091509150505481565b60606000805480602002602001604051908101604052809291908181526020016000905b82821015610ee257838290600052602060002090600602016040518060c0016040529081600082015481526020016001820160009054906101000a900473ffffffffffffffffffffffffffffffffffffffff1673ffffffffffffffffffffffffffffffffffffffff1673ffffffffffffffffffffffffffffffffffffffff16815260200160028201548152602001600382018054610db5906114fc565b80601f0160208091040260200160405190810160405280929190818152602001828054610de1906114fc565b8015610e2e5780601f10610e0357610100808354040283529160200191610e2e565b820191906000526020600020905b815481529060010190602001808311610e1157829003601f168201915b50505050508152602001600482018054610e47906114fc565b80601f0160208091040260200160405190810160405280929190818152602001828054610e73906114fc565b8015610ec05780601f10610e9557610100808354040283529160200191610ec0565b820191906000526020600020905b815481529060010190602001808311610ea357829003601f168201915b5050505050815260200160058201548152505081526020019060010190610d18565b50505050905090565b6000610ef6336109c0565b15610f0a57601436033560601c9050610f19565b610f12610f1d565b9050610f1a565b5b90565b600033905090565b600080fd5b600080fd5b6000819050919050565b610f4281610f2f565b8114610f4d57600080fd5b50565b600081359050610f5f81610f39565b92915050565b600060208284031215610f7b57610f7a610f25565b5b6000610f8984828501610f50565b91505092915050565b610f9b81610f2f565b82525050565b600073ffffffffffffffffffffffffffffffffffffffff82169050919050565b6000610fcc82610fa1565b9050919050565b610fdc81610fc1565b82525050565b600081519050919050565b600082825260208201905092915050565b60005b8381101561101c578082015181840152602081019050611001565b60008484015250505050565b6000601f19601f8301169050919050565b600061104482610fe2565b61104e8185610fed565b935061105e818560208601610ffe565b61106781611028565b840191505092915050565b600060c0820190506110876000830189610f92565b6110946020830188610fd3565b6110a16040830187610f92565b81810360608301526110b38186611039565b905081810360808301526110c78185611039565b90506110d660a0830184610f92565b979650505050505050565b6110ea81610fc1565b81146110f557600080fd5b50565b600081359050611107816110e1565b92915050565b60006020828403121561112357611122610f25565b5b6000611131848285016110f8565b91505092915050565b600060208201905061114f6000830184610f92565b92915050565b60008115159050919050565b61116a81611155565b82525050565b60006020820190506111856000830184611161565b92915050565b600080604083850312156111a2576111a1610f25565b5b60006111b085828601610f50565b92505060206111c1858286016110f8565b9150509250929050565b600080fd5b600080fd5b600080fd5b60008083601f8401126111f0576111ef6111cb565b5b8235905067ffffffffffffffff81111561120d5761120c6111d0565b5b602083019150836001820283011115611229576112286111d5565b5b9250929050565b6000806000806040858703121561124a57611249610f25565b5b600085013567ffffffffffffffff81111561126857611267610f2a565b5b611274878288016111da565b9450945050602085013567ffffffffffffffff81111561129757611296610f2a565b5b6112a3878288016111da565b925092505092959194509250565b600080604083850312156112c8576112c7610f25565b5b60006112d6858286016110f8565b92505060206112e785828601610f50565b9150509250929050565b600081519050919050565b600082825260208201905092915050565b6000819050602082019050919050565b61132681610f2f565b82525050565b61133581610fc1565b82525050565b600082825260208201905092915050565b600061135782610fe2565b611361818561133b565b9350611371818560208601610ffe565b61137a81611028565b840191505092915050565b600060c08301600083015161139d600086018261131d565b5060208301516113b0602086018261132c565b5060408301516113c3604086018261131d565b50606083015184820360608601526113db828261134c565b915050608083015184820360808601526113f5828261134c565b91505060a083015161140a60a086018261131d565b508091505092915050565b60006114218383611385565b905092915050565b6000602082019050919050565b6000611441826112f1565b61144b81856112fc565b93508360208202850161145d8561130d565b8060005b85811015611499578484038952815161147a8582611415565b945061148583611429565b925060208a01995050600181019050611461565b50829750879550505050505092915050565b600060208201905081810360008301526114c58184611436565b905092915050565b7f4e487b7100000000000000000000000000000000000000000000000000000000600052602260045260246000fd5b6000600282049050600182168061151457607f821691505b602082108103611527576115266114cd565b5b50919050565b7f4c696e6b20646f6573206e6f7420657869737400000000000000000000000000600082015250565b6000611563601383610fed565b915061156e8261152d565b602082019050919050565b6000602082019050818103600083015261159281611556565b9050919050565b7f596f752063616e206f6e6c79207570766f74652061206c696e6b206f6e636500600082015250565b60006115cf601f83610fed565b91506115da82611599565b602082019050919050565b600060208201905081810360008301526115fe816115c2565b9050919050565b7f4e487b7100000000000000000000000000000000000000000000000000000000600052603260045260246000fd5b7f43616e6e6f74207570766f746520796f7572206f776e206c696e6b0000000000600082015250565b600061166a601b83610fed565b915061167582611634565b602082019050919050565b600060208201905081810360008301526116998161165d565b9050919050565b60006020820190506116b56000830184610fd3565b92915050565b6000815190506116ca81610f39565b92915050565b6000602082840312156116e6576116e5610f25565b5b60006116f4848285016116bb565b91505092915050565b7f596f752068617665206e6f20436c756220746f6b656e7320746f2073656e6400600082015250565b6000611733601f83610fed565b915061173e826116fd565b602082019050919050565b6000602082019050818103600083015261176281611726565b9050919050565b600060408201905061177e6000830185610fd3565b61178b6020830184610fd3565b9392505050565b7f446964206e6f7420617070726f766520746f6b656e207472616e736665720000600082015250565b60006117c8601e83610fed565b91506117d382611792565b602082019050919050565b600060208201905081810360008301526117f7816117bb565b9050919050565b60006060820190506118136000830186610fd3565b6118206020830185610fd3565b61182d6040830184610f92565b949350505050565b61183e81611155565b811461184957600080fd5b50565b60008151905061185b81611835565b92915050565b60006020828403121561187757611876610f25565b5b60006118858482850161184c565b91505092915050565b7f546f6b656e207472616e73666572206661696c65642100000000000000000000600082015250565b60006118c4601683610fed565b91506118cf8261188e565b602082019050919050565b600060208201905081810360008301526118f3816118b7565b9050919050565b7f4e487b7100000000000000000000000000000000000000000000000000000000600052601160045260246000fd5b600061193482610f2f565b91507fffffffffffffffffffffffffffffffffffffffffffffffffffffffffffffffff8203611966576119656118fa565b5b600182019050919050565b60008160001c9050919050565b6000819050919050565b600061199b61199683611971565b61197e565b9050919050565b600073ffffffffffffffffffffffffffffffffffffffff82169050919050565b60006119d56119d083611971565b6119a2565b9050919050565b60008190508160005260206000209050919050565b600081546119fe816114fc565b611a08818661133b565b94506001821660008114611a235760018114611a3957611a6c565b60ff198316865281151560200286019350611a6c565b611a42856119dc565b60005b83811015611a6457815481890152600182019150602081019050611a45565b808801955050505b50505092915050565b600060c083016000808401549050611a8c81611988565b611a99600087018261131d565b5060018401549050611aaa816119c2565b611ab7602087018261132c565b5060028401549050611ac881611988565b611ad5604087018261131d565b50600384018583036060870152611aec83826119f1565b925050600484018583036080870152611b0583826119f1565b92505060058401549050611b1881611988565b611b2560a087018261131d565b50819250505092915050565b60006020820190508181036000830152611b4b8184611a75565b905092915050565b600081905092915050565b82818337600083830152505050565b6000611b798385611b53565b9350611b86838584611b5e565b82840190509392505050565b6000611b9f828486611b6d565b91508190509392505050565b7f4c696e6b20616c7265616479207375626d697474656400000000000000000000600082015250565b6000611be1601683610fed565b9150611bec82611bab565b602082019050919050565b60006020820190508181036000830152611c1081611bd4565b9050919050565b7f4e487b7100000000000000000000000000000000000000000000000000000000600052604160045260246000fd5b60006020601f8301049050919050565b600082821b905092915050565b600060088302611c937fffffffffffffffffffffffffffffffffffffffffffffffffffffffffffffffff82611c56565b611c9d8683611c56565b95508019841693508086168417925050509392505050565b6000819050919050565b6000611cda611cd5611cd084610f2f565b611cb5565b610f2f565b9050919050565b6000819050919050565b611cf483611cbf565b611d08611d0082611ce1565b848454611c63565b825550505050565b600090565b611d1d611d10565b611d28818484611ceb565b505050565b5b81811015611d4c57611d41600082611d15565b600181019050611d2e565b5050565b601f821115611d9157611d62816119dc565b611d6b84611c46565b81016020851015611d7a578190505b611d8e611d8685611c46565b830182611d2d565b50505b505050565b600082821c905092915050565b6000611db460001984600802611d96565b1980831691505092915050565b6000611dcd8383611da3565b9150826002028217905092915050565b611de682610fe2565b67ffffffffffffffff811115611dff57611dfe611c17565b5b611e0982546114fc565b611e14828285611d50565b600060209050601f831160018114611e475760008415611e35578287015190505b611e3f8582611dc1565b865550611ea7565b601f198416611e55866119dc565b60005b82811015611e7d57848901518255600182019150602085019450602081019050611e58565b86831015611e9a5784890151611e96601f891682611da3565b8355505b6001600288020188555050505b50505050505056fea264697066735822122061c61b05aa576dad934162c5e082c78348f3440267ed36aa5565cf6459965cb764736f6c63430008110033",
  "linkReferences": {},
  "deployedLinkReferences": {}
}