{
  "_format": "hh-sol-artifact-1",
  "contractName": "Voting",
  "sourceName": "contracts/Voting.sol",
  "abi": [
    {
      "inputs": [
        {
          "internalType": "address",
          "name": "trustedForwarder",
          "type": "address"
        }
      ],
      "stateMutability": "nonpayable",
      "type": "constructor"
    },
    {
      "anonymous": false,
      "inputs": [
        {
          "components": [
            {
              "internalType": "uint256",
              "name": "projectId",
              "type": "uint256"
            },
            {
              "internalType": "address",
              "name": "creatorAddress",
              "type": "address"
            },
            {
              "internalType": "uint256",
              "name": "timestamp",
              "type": "uint256"
            },
            {
              "internalType": "string",
              "name": "description",
              "type": "string"
            },
            {
              "internalType": "string",
              "name": "website",
              "type": "string"
            },
            {
              "internalType": "uint256",
              "name": "upvotes",
              "type": "uint256"
            }
          ],
          "indexed": false,
          "internalType": "struct Voting.Project",
          "name": "project",
          "type": "tuple"
        }
      ],
      "name": "ProjectUpvoted",
      "type": "event"
    },
    {
      "inputs": [],
      "name": "getProjects",
      "outputs": [
        {
          "components": [
            {
              "internalType": "uint256",
              "name": "projectId",
              "type": "uint256"
            },
            {
              "internalType": "address",
              "name": "creatorAddress",
              "type": "address"
            },
            {
              "internalType": "uint256",
              "name": "timestamp",
              "type": "uint256"
            },
            {
              "internalType": "string",
              "name": "description",
              "type": "string"
            },
            {
              "internalType": "string",
              "name": "website",
              "type": "string"
            },
            {
              "internalType": "uint256",
              "name": "upvotes",
              "type": "uint256"
            }
          ],
          "internalType": "struct Voting.Project[]",
          "name": "",
          "type": "tuple[]"
        }
      ],
      "stateMutability": "view",
      "type": "function"
    },
    {
      "inputs": [
        {
          "internalType": "uint256",
          "name": "_projectId",
          "type": "uint256"
        }
      ],
      "name": "getUpvotes",
      "outputs": [
        {
          "internalType": "uint256",
          "name": "",
          "type": "uint256"
        }
      ],
      "stateMutability": "view",
      "type": "function"
    },
    {
      "inputs": [],
      "name": "getUsersProjects",
      "outputs": [
        {
          "internalType": "uint256[]",
          "name": "",
          "type": "uint256[]"
        }
      ],
      "stateMutability": "view",
      "type": "function"
    },
    {
      "inputs": [
        {
          "internalType": "uint256",
          "name": "_projectId",
          "type": "uint256"
        }
      ],
      "name": "hasUpvoted",
      "outputs": [
        {
          "internalType": "bool",
          "name": "",
          "type": "bool"
        }
      ],
      "stateMutability": "view",
      "type": "function"
    },
    {
      "inputs": [
        {
          "internalType": "address",
          "name": "forwarder",
          "type": "address"
        }
      ],
      "name": "isTrustedForwarder",
      "outputs": [
        {
          "internalType": "bool",
          "name": "",
          "type": "bool"
        }
      ],
      "stateMutability": "view",
      "type": "function"
    },
    {
      "inputs": [
        {
          "internalType": "string",
          "name": "_website",
          "type": "string"
        },
        {
          "internalType": "string",
          "name": "_description",
          "type": "string"
        }
      ],
      "name": "postProject",
      "outputs": [],
      "stateMutability": "nonpayable",
      "type": "function"
    },
    {
      "inputs": [
        {
          "internalType": "uint256",
          "name": "",
          "type": "uint256"
        }
      ],
      "name": "projects",
      "outputs": [
        {
          "internalType": "uint256",
          "name": "projectId",
          "type": "uint256"
        },
        {
          "internalType": "address",
          "name": "creatorAddress",
          "type": "address"
        },
        {
          "internalType": "uint256",
          "name": "timestamp",
          "type": "uint256"
        },
        {
          "internalType": "string",
          "name": "description",
          "type": "string"
        },
        {
          "internalType": "string",
          "name": "website",
          "type": "string"
        },
        {
          "internalType": "uint256",
          "name": "upvotes",
          "type": "uint256"
        }
      ],
      "stateMutability": "view",
      "type": "function"
    },
    {
      "inputs": [
        {
          "internalType": "uint256",
          "name": "_projectId",
          "type": "uint256"
        }
      ],
      "name": "upvoteProject",
      "outputs": [],
      "stateMutability": "nonpayable",
      "type": "function"
    },
    {
      "inputs": [
        {
          "internalType": "uint256",
          "name": "",
          "type": "uint256"
        },
        {
          "internalType": "address",
          "name": "",
          "type": "address"
        }
      ],
      "name": "upvoters",
      "outputs": [
        {
          "internalType": "bool",
          "name": "",
          "type": "bool"
        }
      ],
      "stateMutability": "view",
      "type": "function"
    },
    {
      "inputs": [
        {
          "internalType": "address",
          "name": "",
          "type": "address"
        },
        {
          "internalType": "uint256",
          "name": "",
          "type": "uint256"
        }
      ],
      "name": "usersProjects",
      "outputs": [
        {
          "internalType": "uint256",
          "name": "",
          "type": "uint256"
        }
      ],
      "stateMutability": "view",
      "type": "function"
    },
    {
      "inputs": [
        {
          "internalType": "address",
          "name": "",
          "type": "address"
        }
      ],
      "name": "usersUpvoteCount",
      "outputs": [
        {
          "internalType": "uint256",
          "name": "",
          "type": "uint256"
        }
      ],
      "stateMutability": "view",
      "type": "function"
    }
  ],
  "bytecode": "0x60a06040526012600a62000014919062000257565b6001620000229190620002a8565b6005556012600a62000035919062000257565b6003620000439190620002a8565b6006553480156200005357600080fd5b50604051620024cf380380620024cf83398181016040528101906200007991906200035d565b73bf175fcc7086b4f9bd59d5eae8ea67b8f940de0d8073ffffffffffffffffffffffffffffffffffffffff1660808173ffffffffffffffffffffffffffffffffffffffff168152505050506200038f565b7f4e487b7100000000000000000000000000000000000000000000000000000000600052601160045260246000fd5b60008160011c9050919050565b6000808291508390505b6001851115620001585780860481111562000130576200012f620000ca565b5b6001851615620001405780820291505b80810290506200015085620000f9565b945062000110565b94509492505050565b60008262000173576001905062000246565b8162000183576000905062000246565b81600181146200019c5760028114620001a757620001dd565b600191505062000246565b60ff841115620001bc57620001bb620000ca565b5b8360020a915084821115620001d657620001d5620000ca565b5b5062000246565b5060208310610133831016604e8410600b8410161715620002175782820a905083811115620002115762000210620000ca565b5b62000246565b62000226848484600162000106565b9250905081840481111562000240576200023f620000ca565b5b81810290505b9392505050565b6000819050919050565b600062000264826200024d565b915062000271836200024d565b9250620002a07fffffffffffffffffffffffffffffffffffffffffffffffffffffffffffffffff848462000161565b905092915050565b6000620002b5826200024d565b9150620002c2836200024d565b9250828202620002d2816200024d565b91508282048414831517620002ec57620002eb620000ca565b5b5092915050565b600080fd5b600073ffffffffffffffffffffffffffffffffffffffff82169050919050565b60006200032582620002f8565b9050919050565b620003378162000318565b81146200034357600080fd5b50565b60008151905062000357816200032c565b92915050565b600060208284031215620003765762000375620002f3565b5b6000620003868482850162000346565b91505092915050565b608051612124620003ab6000396000610ac401526121246000f3fe608060405234801561001057600080fd5b50600436106100a95760003560e01c806362bf6ffe1161007157806362bf6ffe1461017d5780637f56330f146101ad57806398f42702146101c9578063c723bf86146101f9578063cb24b51e14610229578063dcc6012814610259576100a9565b8063064710fd146100ae578063107046bd146100cc57806335677ad9146101015780634c035d8214610131578063572b6c051461014d575b600080fd5b6100b6610277565b6040516100c3919061115b565b60405180910390f35b6100e660048036038101906100e191906111b3565b610313565b6040516100f8969594939291906112c0565b60405180910390f35b61011b6004803603810190610116919061135b565b61048f565b6040516101289190611388565b60405180910390f35b61014b600480360381019061014691906111b3565b6104a7565b005b6101676004803603810190610162919061135b565b610ac0565b60405161017491906113be565b60405180910390f35b610197600480360381019061019291906113d9565b610b18565b6040516101a491906113be565b60405180910390f35b6101c760048036038101906101c2919061147e565b610b47565b005b6101e360048036038101906101de91906111b3565b610d95565b6040516101f09190611388565b60405180910390f35b610213600480360381019061020e91906114ff565b610dc3565b6040516102209190611388565b60405180910390f35b610243600480360381019061023e91906111b3565b610df4565b60405161025091906113be565b60405180910390f35b610261610e62565b60405161026e91906116ea565b60405180910390f35b606060036000610285611059565b73ffffffffffffffffffffffffffffffffffffffff1673ffffffffffffffffffffffffffffffffffffffff16815260200190815260200160002080548060200260200160405190810160405280929190818152602001828054801561030957602002820191906000526020600020905b8154815260200190600101908083116102f5575b5050505050905090565b6000818154811061032357600080fd5b90600052602060002090600602016000915090508060000154908060010160009054906101000a900473ffffffffffffffffffffffffffffffffffffffff16908060020154908060030180546103789061173b565b80601f01602080910402602001604051908101604052809291908181526020018280546103a49061173b565b80156103f15780601f106103c6576101008083540402835291602001916103f1565b820191906000526020600020905b8154815290600101906020018083116103d457829003601f168201915b5050505050908060040180546104069061173b565b80601f01602080910402602001604051908101604052809291908181526020018280546104329061173b565b801561047f5780601f106104545761010080835404028352916020019161047f565b820191906000526020600020905b81548152906001019060200180831161046257829003601f168201915b5050505050908060050154905086565b60026020528060005260406000206000915090505481565b8060008054905010156104ef576040517f08c379a00000000000000000000000000000000000000000000000000000000081526004016104e6906117b8565b60405180910390fd5b60011515600160008381526020019081526020016000206000610510611059565b73ffffffffffffffffffffffffffffffffffffffff1673ffffffffffffffffffffffffffffffffffffffff16815260200190815260200160002060009054906101000a900460ff1615150361059a576040517f08c379a000000000000000000000000000000000000000000000000000000000815260040161059190611824565b60405180910390fd5b6105a2611059565b73ffffffffffffffffffffffffffffffffffffffff16600082815481106105cc576105cb611844565b5b906000526020600020906006020160010160009054906101000a900473ffffffffffffffffffffffffffffffffffffffff1673ffffffffffffffffffffffffffffffffffffffff1603610654576040517f08c379a000000000000000000000000000000000000000000000000000000000815260040161064b906118bf565b60405180910390fd5b60055473814411684b5669d277093d48f2b2bb01bea6025573ffffffffffffffffffffffffffffffffffffffff166370a0823161068f611059565b6040518263ffffffff1660e01b81526004016106ab91906118df565b602060405180830381865afa1580156106c8573d6000803e3d6000fd5b505050506040513d601f19601f820116820180604052508101906106ec919061190f565b101561072d576040517f08c379a000000000000000000000000000000000000000000000000000000000815260040161072490611988565b60405180910390fd5b60055473814411684b5669d277093d48f2b2bb01bea6025573ffffffffffffffffffffffffffffffffffffffff1663dd62ed3e610768611059565b306040518363ffffffff1660e01b81526004016107869291906119a8565b602060405180830381865afa1580156107a3573d6000803e3d6000fd5b505050506040513d601f19601f820116820180604052508101906107c7919061190f565b1015610808576040517f08c379a00000000000000000000000000000000000000000000000000000000081526004016107ff90611a1d565b60405180910390fd5b600080828154811061081d5761081c611844565b5b90600052602060002090600602019050600073814411684b5669d277093d48f2b2bb01bea6025573ffffffffffffffffffffffffffffffffffffffff166323b872dd610867611059565b8460010160009054906101000a900473ffffffffffffffffffffffffffffffffffffffff166005546040518463ffffffff1660e01b81526004016108ad93929190611a3d565b6020604051808303816000875af11580156108cc573d6000803e3d6000fd5b505050506040513d601f19601f820116820180604052508101906108f09190611aa0565b905080610932576040517f08c379a000000000000000000000000000000000000000000000000000000000815260040161092990611b19565b60405180910390fd5b81600501600081548092919061094790611b68565b919050555060026000610958611059565b73ffffffffffffffffffffffffffffffffffffffff1673ffffffffffffffffffffffffffffffffffffffff16815260200190815260200160002060008154809291906109a390611b68565b9190505550600360006109b4611059565b73ffffffffffffffffffffffffffffffffffffffff1673ffffffffffffffffffffffffffffffffffffffff16815260200190815260200160002083908060018154018082558091505060019003906000526020600020016000909190919091505560018060008581526020019081526020016000206000610a33611059565b73ffffffffffffffffffffffffffffffffffffffff1673ffffffffffffffffffffffffffffffffffffffff16815260200190815260200160002060006101000a81548160ff0219169083151502179055507f02540fb9f38379dbab7a7053385f2837744ea3870271c786b60d900aeaa8245382604051610ab39190611d70565b60405180910390a1505050565b60007f000000000000000000000000000000000000000000000000000000000000000073ffffffffffffffffffffffffffffffffffffffff168273ffffffffffffffffffffffffffffffffffffffff16149050919050565b60016020528160005260406000206020528060005260406000206000915091509054906101000a900460ff1681565b60008080549050905060048585604051610b62929190611dd1565b908152602001604051809103902060009054906101000a900460ff1615610bbe576040517f08c379a0000000000000000000000000000000000000000000000000000000008152600401610bb590611e36565b60405180910390fd5b60006040518060c00160405280838152602001610bd9611059565b73ffffffffffffffffffffffffffffffffffffffff16815260200142815260200185858080601f016020809104026020016040519081016040528093929190818152602001838380828437600081840152601f19601f82011690508083019250505050505050815260200187878080601f016020809104026020016040519081016040528093929190818152602001838380828437600081840152601f19601f8201169050808301925050505050505081526020016000815250905060008190806001815401808255809150506001900390600052602060002090600602016000909190919091506000820151816000015560208201518160010160006101000a81548173ffffffffffffffffffffffffffffffffffffffff021916908373ffffffffffffffffffffffffffffffffffffffff160217905550604082015181600201556060820151816003019081610d31919061201c565b506080820151816004019081610d47919061201c565b5060a082015181600501555050600160048787604051610d68929190611dd1565b908152602001604051809103902060006101000a81548160ff021916908315150217905550505050505050565b6000808281548110610daa57610da9611844565b5b9060005260206000209060060201600501549050919050565b60036020528160005260406000208181548110610ddf57600080fd5b90600052602060002001600091509150505481565b6000600160008381526020019081526020016000206000610e13611059565b73ffffffffffffffffffffffffffffffffffffffff1673ffffffffffffffffffffffffffffffffffffffff16815260200190815260200160002060009054906101000a900460ff169050919050565b60606000805480602002602001604051908101604052809291908181526020016000905b8282101561105057838290600052602060002090600602016040518060c0016040529081600082015481526020016001820160009054906101000a900473ffffffffffffffffffffffffffffffffffffffff1673ffffffffffffffffffffffffffffffffffffffff1673ffffffffffffffffffffffffffffffffffffffff16815260200160028201548152602001600382018054610f239061173b565b80601f0160208091040260200160405190810160405280929190818152602001828054610f4f9061173b565b8015610f9c5780601f10610f7157610100808354040283529160200191610f9c565b820191906000526020600020905b815481529060010190602001808311610f7f57829003601f168201915b50505050508152602001600482018054610fb59061173b565b80601f0160208091040260200160405190810160405280929190818152602001828054610fe19061173b565b801561102e5780601f106110035761010080835404028352916020019161102e565b820191906000526020600020905b81548152906001019060200180831161101157829003601f168201915b5050505050815260200160058201548152505081526020019060010190610e86565b50505050905090565b600061106433610ac0565b1561107857601436033560601c9050611087565b61108061108b565b9050611088565b5b90565b600033905090565b600081519050919050565b600082825260208201905092915050565b6000819050602082019050919050565b6000819050919050565b6110d2816110bf565b82525050565b60006110e483836110c9565b60208301905092915050565b6000602082019050919050565b600061110882611093565b611112818561109e565b935061111d836110af565b8060005b8381101561114e57815161113588826110d8565b9750611140836110f0565b925050600181019050611121565b5085935050505092915050565b6000602082019050818103600083015261117581846110fd565b905092915050565b600080fd5b600080fd5b611190816110bf565b811461119b57600080fd5b50565b6000813590506111ad81611187565b92915050565b6000602082840312156111c9576111c861117d565b5b60006111d78482850161119e565b91505092915050565b6111e9816110bf565b82525050565b600073ffffffffffffffffffffffffffffffffffffffff82169050919050565b600061121a826111ef565b9050919050565b61122a8161120f565b82525050565b600081519050919050565b600082825260208201905092915050565b60005b8381101561126a57808201518184015260208101905061124f565b60008484015250505050565b6000601f19601f8301169050919050565b600061129282611230565b61129c818561123b565b93506112ac81856020860161124c565b6112b581611276565b840191505092915050565b600060c0820190506112d560008301896111e0565b6112e26020830188611221565b6112ef60408301876111e0565b81810360608301526113018186611287565b905081810360808301526113158185611287565b905061132460a08301846111e0565b979650505050505050565b6113388161120f565b811461134357600080fd5b50565b6000813590506113558161132f565b92915050565b6000602082840312156113715761137061117d565b5b600061137f84828501611346565b91505092915050565b600060208201905061139d60008301846111e0565b92915050565b60008115159050919050565b6113b8816113a3565b82525050565b60006020820190506113d360008301846113af565b92915050565b600080604083850312156113f0576113ef61117d565b5b60006113fe8582860161119e565b925050602061140f85828601611346565b9150509250929050565b600080fd5b600080fd5b600080fd5b60008083601f84011261143e5761143d611419565b5b8235905067ffffffffffffffff81111561145b5761145a61141e565b5b60208301915083600182028301111561147757611476611423565b5b9250929050565b600080600080604085870312156114985761149761117d565b5b600085013567ffffffffffffffff8111156114b6576114b5611182565b5b6114c287828801611428565b9450945050602085013567ffffffffffffffff8111156114e5576114e4611182565b5b6114f187828801611428565b925092505092959194509250565b600080604083850312156115165761151561117d565b5b600061152485828601611346565b92505060206115358582860161119e565b9150509250929050565b600081519050919050565b600082825260208201905092915050565b6000819050602082019050919050565b6115748161120f565b82525050565b600082825260208201905092915050565b600061159682611230565b6115a0818561157a565b93506115b081856020860161124c565b6115b981611276565b840191505092915050565b600060c0830160008301516115dc60008601826110c9565b5060208301516115ef602086018261156b565b50604083015161160260408601826110c9565b506060830151848203606086015261161a828261158b565b91505060808301518482036080860152611634828261158b565b91505060a083015161164960a08601826110c9565b508091505092915050565b600061166083836115c4565b905092915050565b6000602082019050919050565b60006116808261153f565b61168a818561154a565b93508360208202850161169c8561155b565b8060005b858110156116d857848403895281516116b98582611654565b94506116c483611668565b925060208a019950506001810190506116a0565b50829750879550505050505092915050565b600060208201905081810360008301526117048184611675565b905092915050565b7f4e487b7100000000000000000000000000000000000000000000000000000000600052602260045260246000fd5b6000600282049050600182168061175357607f821691505b6020821081036117665761176561170c565b5b50919050565b7f4c696e6b20646f6573206e6f7420657869737400000000000000000000000000600082015250565b60006117a260138361123b565b91506117ad8261176c565b602082019050919050565b600060208201905081810360008301526117d181611795565b9050919050565b7f596f752063616e206f6e6c79207570766f74652061206c696e6b206f6e636500600082015250565b600061180e601f8361123b565b9150611819826117d8565b602082019050919050565b6000602082019050818103600083015261183d81611801565b9050919050565b7f4e487b7100000000000000000000000000000000000000000000000000000000600052603260045260246000fd5b7f43616e6e6f74207570766f746520796f7572206f776e206c696e6b0000000000600082015250565b60006118a9601b8361123b565b91506118b482611873565b602082019050919050565b600060208201905081810360008301526118d88161189c565b9050919050565b60006020820190506118f46000830184611221565b92915050565b60008151905061190981611187565b92915050565b6000602082840312156119255761192461117d565b5b6000611933848285016118fa565b91505092915050565b7f596f752068617665206e6f20436c756220746f6b656e7320746f2073656e6400600082015250565b6000611972601f8361123b565b915061197d8261193c565b602082019050919050565b600060208201905081810360008301526119a181611965565b9050919050565b60006040820190506119bd6000830185611221565b6119ca6020830184611221565b9392505050565b7f446964206e6f7420617070726f766520746f6b656e207472616e736665720000600082015250565b6000611a07601e8361123b565b9150611a12826119d1565b602082019050919050565b60006020820190508181036000830152611a36816119fa565b9050919050565b6000606082019050611a526000830186611221565b611a5f6020830185611221565b611a6c60408301846111e0565b949350505050565b611a7d816113a3565b8114611a8857600080fd5b50565b600081519050611a9a81611a74565b92915050565b600060208284031215611ab657611ab561117d565b5b6000611ac484828501611a8b565b91505092915050565b7f546f6b656e207472616e73666572206661696c65642100000000000000000000600082015250565b6000611b0360168361123b565b9150611b0e82611acd565b602082019050919050565b60006020820190508181036000830152611b3281611af6565b9050919050565b7f4e487b7100000000000000000000000000000000000000000000000000000000600052601160045260246000fd5b6000611b73826110bf565b91507fffffffffffffffffffffffffffffffffffffffffffffffffffffffffffffffff8203611ba557611ba4611b39565b5b600182019050919050565b60008160001c9050919050565b6000819050919050565b6000611bda611bd583611bb0565b611bbd565b9050919050565b600073ffffffffffffffffffffffffffffffffffffffff82169050919050565b6000611c14611c0f83611bb0565b611be1565b9050919050565b60008190508160005260206000209050919050565b60008154611c3d8161173b565b611c47818661157a565b94506001821660008114611c625760018114611c7857611cab565b60ff198316865281151560200286019350611cab565b611c8185611c1b565b60005b83811015611ca357815481890152600182019150602081019050611c84565b808801955050505b50505092915050565b600060c083016000808401549050611ccb81611bc7565b611cd860008701826110c9565b5060018401549050611ce981611c01565b611cf6602087018261156b565b5060028401549050611d0781611bc7565b611d1460408701826110c9565b50600384018583036060870152611d2b8382611c30565b925050600484018583036080870152611d448382611c30565b92505060058401549050611d5781611bc7565b611d6460a08701826110c9565b50819250505092915050565b60006020820190508181036000830152611d8a8184611cb4565b905092915050565b600081905092915050565b82818337600083830152505050565b6000611db88385611d92565b9350611dc5838584611d9d565b82840190509392505050565b6000611dde828486611dac565b91508190509392505050565b7f4c696e6b20616c7265616479207375626d697474656400000000000000000000600082015250565b6000611e2060168361123b565b9150611e2b82611dea565b602082019050919050565b60006020820190508181036000830152611e4f81611e13565b9050919050565b7f4e487b7100000000000000000000000000000000000000000000000000000000600052604160045260246000fd5b60006020601f8301049050919050565b600082821b905092915050565b600060088302611ed27fffffffffffffffffffffffffffffffffffffffffffffffffffffffffffffffff82611e95565b611edc8683611e95565b95508019841693508086168417925050509392505050565b6000819050919050565b6000611f19611f14611f0f846110bf565b611ef4565b6110bf565b9050919050565b6000819050919050565b611f3383611efe565b611f47611f3f82611f20565b848454611ea2565b825550505050565b600090565b611f5c611f4f565b611f67818484611f2a565b505050565b5b81811015611f8b57611f80600082611f54565b600181019050611f6d565b5050565b601f821115611fd057611fa181611c1b565b611faa84611e85565b81016020851015611fb9578190505b611fcd611fc585611e85565b830182611f6c565b50505b505050565b600082821c905092915050565b6000611ff360001984600802611fd5565b1980831691505092915050565b600061200c8383611fe2565b9150826002028217905092915050565b61202582611230565b67ffffffffffffffff81111561203e5761203d611e56565b5b612048825461173b565b612053828285611f8f565b600060209050601f8311600181146120865760008415612074578287015190505b61207e8582612000565b8655506120e6565b601f19841661209486611c1b565b60005b828110156120bc57848901518255600182019150602085019450602081019050612097565b868310156120d957848901516120d5601f891682611fe2565b8355505b6001600288020188555050505b50505050505056fea2646970667358221220e20d41ec1b253e33d74f9acde43f45fdc6faae54ce6a82e8a15804d11d57777964736f6c63430008110033",
  "linkReferences": {},
  "deployedLinkReferences": {}
}